{
  "contractName": "PirateHelper",
  "abi": [
    {
      "anonymous": false,
      "inputs": [
        {
          "indexed": false,
          "internalType": "uint256",
          "name": "pirateId",
          "type": "uint256"
        },
        {
          "indexed": false,
          "internalType": "string",
          "name": "name",
          "type": "string"
        },
        {
          "indexed": false,
          "internalType": "uint256",
          "name": "dna",
          "type": "uint256"
        }
      ],
      "name": "NewPirate",
      "type": "event"
    },
    {
      "anonymous": false,
      "inputs": [
        {
          "indexed": true,
          "internalType": "address",
          "name": "previousOwner",
          "type": "address"
        },
        {
          "indexed": true,
          "internalType": "address",
          "name": "newOwner",
          "type": "address"
        }
      ],
      "name": "OwnershipTransferred",
      "type": "event"
    },
    {
      "constant": false,
      "inputs": [
        {
          "internalType": "string",
          "name": "_name",
          "type": "string"
        }
      ],
      "name": "createRandomPirate",
      "outputs": [],
      "payable": false,
      "stateMutability": "nonpayable",
      "type": "function"
    },
    {
      "constant": true,
      "inputs": [
        {
          "internalType": "uint256",
          "name": "index",
          "type": "uint256"
        }
      ],
      "name": "getPirate",
      "outputs": [
        {
          "internalType": "string",
          "name": "",
          "type": "string"
        },
        {
          "internalType": "uint32",
          "name": "",
          "type": "uint32"
        },
        {
          "internalType": "uint16",
          "name": "",
          "type": "uint16"
        },
        {
          "internalType": "uint16",
          "name": "",
          "type": "uint16"
        }
      ],
      "payable": false,
      "stateMutability": "view",
      "type": "function"
    },
    {
      "constant": true,
      "inputs": [],
      "name": "getPiratesLenght",
      "outputs": [
        {
          "internalType": "uint256",
          "name": "",
          "type": "uint256"
        }
      ],
      "payable": false,
      "stateMutability": "view",
      "type": "function"
    },
    {
      "constant": true,
      "inputs": [],
      "name": "owner",
      "outputs": [
        {
          "internalType": "address",
          "name": "",
          "type": "address"
        }
      ],
      "payable": false,
      "stateMutability": "view",
      "type": "function"
    },
    {
      "constant": true,
      "inputs": [
        {
          "internalType": "uint256",
          "name": "",
          "type": "uint256"
        }
      ],
      "name": "pirateToOwner",
      "outputs": [
        {
          "internalType": "address",
          "name": "",
          "type": "address"
        }
      ],
      "payable": false,
      "stateMutability": "view",
      "type": "function"
    },
    {
      "constant": true,
      "inputs": [
        {
          "internalType": "uint256",
          "name": "",
          "type": "uint256"
        }
      ],
      "name": "pirates",
      "outputs": [
        {
          "internalType": "string",
          "name": "name",
          "type": "string"
        },
        {
          "internalType": "uint256",
          "name": "dna",
          "type": "uint256"
        },
        {
          "internalType": "uint32",
          "name": "level",
          "type": "uint32"
        },
        {
          "internalType": "uint32",
          "name": "readyTime",
          "type": "uint32"
        },
        {
          "internalType": "uint16",
          "name": "winCount",
          "type": "uint16"
        },
        {
          "internalType": "uint16",
          "name": "lossCount",
          "type": "uint16"
        }
      ],
      "payable": false,
      "stateMutability": "view",
      "type": "function"
    },
    {
      "constant": false,
      "inputs": [
        {
          "internalType": "address",
          "name": "_address",
          "type": "address"
        }
      ],
      "name": "setPetContractAddress",
      "outputs": [],
      "payable": false,
      "stateMutability": "nonpayable",
      "type": "function"
    },
    {
      "constant": false,
      "inputs": [
        {
          "internalType": "address",
          "name": "newOwner",
          "type": "address"
        }
      ],
      "name": "transferOwnership",
      "outputs": [],
      "payable": false,
      "stateMutability": "nonpayable",
      "type": "function"
    },
    {
      "constant": false,
      "inputs": [
        {
          "internalType": "uint256",
          "name": "_fee",
          "type": "uint256"
        }
      ],
      "name": "setLevelUpFee",
      "outputs": [],
      "payable": false,
      "stateMutability": "nonpayable",
      "type": "function"
    },
    {
      "constant": false,
      "inputs": [
        {
          "internalType": "uint256",
          "name": "_pirateId",
          "type": "uint256"
        }
      ],
      "name": "levelUp",
      "outputs": [],
      "payable": true,
      "stateMutability": "payable",
      "type": "function"
    },
    {
      "constant": false,
      "inputs": [
        {
          "internalType": "uint256",
          "name": "_pirateId",
          "type": "uint256"
        },
        {
          "internalType": "string",
          "name": "_newName",
          "type": "string"
        }
      ],
      "name": "changeName",
      "outputs": [],
      "payable": false,
      "stateMutability": "nonpayable",
      "type": "function"
    },
    {
      "constant": false,
      "inputs": [
        {
          "internalType": "uint256",
          "name": "_pirateId",
          "type": "uint256"
        },
        {
          "internalType": "uint256",
          "name": "_newDna",
          "type": "uint256"
        }
      ],
      "name": "changeDna",
      "outputs": [],
      "payable": false,
      "stateMutability": "nonpayable",
      "type": "function"
    },
    {
      "constant": true,
      "inputs": [
        {
          "internalType": "address",
          "name": "_owner",
          "type": "address"
        }
      ],
      "name": "getPiratesByOwner",
      "outputs": [
        {
          "internalType": "uint256[]",
          "name": "",
          "type": "uint256[]"
        }
      ],
      "payable": false,
      "stateMutability": "view",
      "type": "function"
    }
  ],
  "bytecode": "0x60806040526010600155600154600a0a6002556201518060035566038d7ea4c68000600855336000806101000a81548173ffffffffffffffffffffffffffffffffffffffff021916908373ffffffffffffffffffffffffffffffffffffffff160217905550611415806100736000396000f3fe6080604052600436106100c25760003560e01c80638da5cb5b1161007f578063ccf670f811610059578063ccf670f814610527578063d8e29daa14610562578063db7e28a01461062a578063f2fde38b146106a5576100c2565b80638da5cb5b14610341578063bf14e95614610398578063c39cbef114610497576100c2565b80630ce90ec2146100c75780632e40c04b146100f557806336c80cb91461019b5780634921ac5c146102805780635faf2880146102ab5780638d089b4e146102f0575b600080fd5b6100f3600480360360208110156100dd57600080fd5b81019080803590602001909291905050506106f6565b005b34801561010157600080fd5b506101446004803603602081101561011857600080fd5b81019080803573ffffffffffffffffffffffffffffffffffffffff16906020019092919050505061075e565b6040518080602001828103825283818151815260200191508051906020019060200280838360005b8381101561018757808201518184015260208101905061016c565b505050509050019250505060405180910390f35b3480156101a757600080fd5b506101d4600480360360208110156101be57600080fd5b810190808035906020019092919050505061088b565b60405180806020018563ffffffff1663ffffffff1681526020018461ffff1661ffff1681526020018361ffff1661ffff168152602001828103825286818151815260200191508051906020019080838360005b83811015610242578082015181840152602081019050610227565b50505050905090810190601f16801561026f5780820380516001836020036101000a031916815260200191505b509550505050505060405180910390f35b34801561028c57600080fd5b506102956109e4565b6040518082815260200191505060405180910390f35b3480156102b757600080fd5b506102ee600480360360408110156102ce57600080fd5b8101908080359060200190929190803590602001909291905050506109f1565b005b3480156102fc57600080fd5b5061033f6004803603602081101561031357600080fd5b81019080803573ffffffffffffffffffffffffffffffffffffffff169060200190929190505050610acb565b005b34801561034d57600080fd5b50610356610b68565b604051808273ffffffffffffffffffffffffffffffffffffffff1673ffffffffffffffffffffffffffffffffffffffff16815260200191505060405180910390f35b3480156103a457600080fd5b506103d1600480360360208110156103bb57600080fd5b8101908080359060200190929190505050610b8d565b60405180806020018781526020018663ffffffff1663ffffffff1681526020018563ffffffff1663ffffffff1681526020018461ffff1661ffff1681526020018361ffff1661ffff168152602001828103825288818151815260200191508051906020019080838360005b8381101561045757808201518184015260208101905061043c565b50505050905090810190601f1680156104845780820380516001836020036101000a031916815260200191505b5097505050505050505060405180910390f35b3480156104a357600080fd5b50610525600480360360408110156104ba57600080fd5b8101908080359060200190929190803590602001906401000000008111156104e157600080fd5b8201836020820111156104f357600080fd5b8035906020019184600183028401116401000000008311171561051557600080fd5b9091929391929390505050610caa565b005b34801561053357600080fd5b506105606004803603602081101561054a57600080fd5b8101908080359060200190929190505050610d90565b005b34801561056e57600080fd5b506106286004803603602081101561058557600080fd5b81019080803590602001906401000000008111156105a257600080fd5b8201836020820111156105b457600080fd5b803590602001918460018302840111640100000000831117156105d657600080fd5b91908080601f016020809104026020016040519081016040528093929190818152602001838380828437600081840152601f19601f820116905080830192505050505050509192919290505050610df3565b005b34801561063657600080fd5b506106636004803603602081101561064d57600080fd5b8101908080359060200190929190505050610e69565b604051808273ffffffffffffffffffffffffffffffffffffffff1673ffffffffffffffffffffffffffffffffffffffff16815260200191505060405180910390f35b3480156106b157600080fd5b506106f4600480360360208110156106c857600080fd5b81019080803573ffffffffffffffffffffffffffffffffffffffff169060200190929190505050610e9c565b005b600854341461070457600080fd5b6004818154811061071157fe5b9060005260206000209060030201600201600081819054906101000a900463ffffffff168092919060010191906101000a81548163ffffffff021916908363ffffffff1602179055505050565b606080600660008473ffffffffffffffffffffffffffffffffffffffff1673ffffffffffffffffffffffffffffffffffffffff168152602001908152602001600020546040519080825280602002602001820160405280156107cf5781602001602082028038833980820191505090505b509050600080905060008090505b600480549050811015610880578473ffffffffffffffffffffffffffffffffffffffff166005600083815260200190815260200160002060009054906101000a900473ffffffffffffffffffffffffffffffffffffffff1673ffffffffffffffffffffffffffffffffffffffff161415610873578083838151811061085e57fe5b60200260200101818152505081806001019250505b80806001019150506107dd565b508192505050919050565b606060008060006004858154811061089f57fe5b9060005260206000209060030201600001600486815481106108bd57fe5b906000526020600020906003020160020160009054906101000a900463ffffffff16600487815481106108ec57fe5b906000526020600020906003020160020160089054906101000a900461ffff166004888154811061091957fe5b9060005260206000209060030201600201600a9054906101000a900461ffff16838054600181600116156101000203166002900480601f0160208091040260200160405190810160405280929190818152602001828054600181600116156101000203166002900480156109ce5780601f106109a3576101008083540402835291602001916109ce565b820191906000526020600020905b8154815290600101906020018083116109b157829003601f168201915b5050505050935093509350935093509193509193565b6000600480549050905090565b6014828160048281548110610a0257fe5b906000526020600020906003020160020160009054906101000a900463ffffffff1663ffffffff161015610a3557600080fd5b836005600082815260200190815260200160002060009054906101000a900473ffffffffffffffffffffffffffffffffffffffff1673ffffffffffffffffffffffffffffffffffffffff163373ffffffffffffffffffffffffffffffffffffffff1614610aa157600080fd5b8360048681548110610aaf57fe5b9060005260206000209060030201600101819055505050505050565b6000809054906101000a900473ffffffffffffffffffffffffffffffffffffffff1673ffffffffffffffffffffffffffffffffffffffff163373ffffffffffffffffffffffffffffffffffffffff1614610b2457600080fd5b80600760006101000a81548173ffffffffffffffffffffffffffffffffffffffff021916908373ffffffffffffffffffffffffffffffffffffffff16021790555050565b6000809054906101000a900473ffffffffffffffffffffffffffffffffffffffff1681565b60048181548110610b9a57fe5b9060005260206000209060030201600091509050806000018054600181600116156101000203166002900480601f016020809104026020016040519081016040528092919081815260200182805460018160011615610100020316600290048015610c465780601f10610c1b57610100808354040283529160200191610c46565b820191906000526020600020905b815481529060010190602001808311610c2957829003601f168201915b5050505050908060010154908060020160009054906101000a900463ffffffff16908060020160049054906101000a900463ffffffff16908060020160089054906101000a900461ffff169080600201600a9054906101000a900461ffff16905086565b6002838160048281548110610cbb57fe5b906000526020600020906003020160020160009054906101000a900463ffffffff1663ffffffff161015610cee57600080fd5b846005600082815260200190815260200160002060009054906101000a900473ffffffffffffffffffffffffffffffffffffffff1673ffffffffffffffffffffffffffffffffffffffff163373ffffffffffffffffffffffffffffffffffffffff1614610d5a57600080fd5b848460048881548110610d6957fe5b90600052602060002090600302016000019190610d879291906112bb565b50505050505050565b6000809054906101000a900473ffffffffffffffffffffffffffffffffffffffff1673ffffffffffffffffffffffffffffffffffffffff163373ffffffffffffffffffffffffffffffffffffffff1614610de957600080fd5b8060088190555050565b6000600660003373ffffffffffffffffffffffffffffffffffffffff1673ffffffffffffffffffffffffffffffffffffffff1681526020019081526020016000205414610e3f57600080fd5b6000610e4a82610fed565b905060648181610e5657fe5b0681039050610e658282611030565b5050565b60056020528060005260406000206000915054906101000a900473ffffffffffffffffffffffffffffffffffffffff1681565b6000809054906101000a900473ffffffffffffffffffffffffffffffffffffffff1673ffffffffffffffffffffffffffffffffffffffff163373ffffffffffffffffffffffffffffffffffffffff1614610ef557600080fd5b600073ffffffffffffffffffffffffffffffffffffffff168173ffffffffffffffffffffffffffffffffffffffff161415610f2f57600080fd5b8073ffffffffffffffffffffffffffffffffffffffff166000809054906101000a900473ffffffffffffffffffffffffffffffffffffffff1673ffffffffffffffffffffffffffffffffffffffff167f8be0079c531659141344cd1fd0a4f28419497f9722a3daafe3b4186f6b6457e060405160405180910390a3806000806101000a81548173ffffffffffffffffffffffffffffffffffffffff021916908373ffffffffffffffffffffffffffffffffffffffff16021790555050565b60008042604051602001808281526020019150506040516020818303038152906040528051906020012060001c9050600254818161102757fe5b06915050919050565b6000600160046040518060c00160405280868152602001858152602001600163ffffffff168152602001600354420163ffffffff168152602001600061ffff168152602001600061ffff168152509080600181540180825580915050906001820390600052602060002090600302016000909192909190915060008201518160000190805190602001906110c592919061133b565b506020820151816001015560408201518160020160006101000a81548163ffffffff021916908363ffffffff16021790555060608201518160020160046101000a81548163ffffffff021916908363ffffffff16021790555060808201518160020160086101000a81548161ffff021916908361ffff16021790555060a082015181600201600a6101000a81548161ffff021916908361ffff1602179055505050039050336005600083815260200190815260200160002060006101000a81548173ffffffffffffffffffffffffffffffffffffffff021916908373ffffffffffffffffffffffffffffffffffffffff160217905550600660003373ffffffffffffffffffffffffffffffffffffffff1673ffffffffffffffffffffffffffffffffffffffff168152602001908152602001600020600081548092919060010191905055507f6b0b682eb60f10e65ca2065dceecd9e5d24a08f912cdcb6bf59fb4ded1b3a1048184846040518084815260200180602001838152602001828103825284818151815260200191508051906020019080838360005b8381101561127a57808201518184015260208101905061125f565b50505050905090810190601f1680156112a75780820380516001836020036101000a031916815260200191505b5094505050505060405180910390a1505050565b828054600181600116156101000203166002900490600052602060002090601f016020900481019282601f106112fc57803560ff191683800117855561132a565b8280016001018555821561132a579182015b8281111561132957823582559160200191906001019061130e565b5b50905061133791906113bb565b5090565b828054600181600116156101000203166002900490600052602060002090601f016020900481019282601f1061137c57805160ff19168380011785556113aa565b828001600101855582156113aa579182015b828111156113a957825182559160200191906001019061138e565b5b5090506113b791906113bb565b5090565b6113dd91905b808211156113d95760008160009055506001016113c1565b5090565b9056fea265627a7a72315820e2d2bc5f828390fba2c19cd8a5acf94c6edbeeaf164b4870e3b6386aee1b40c164736f6c63430005110032",
  "source": "pragma solidity >=0.4.20;\n\nimport \"./piratefeeding.sol\";\n\ncontract PirateHelper is PirateFeeding {\n\n  uint levelUpFee = 0.001 ether;\n\n  modifier aboveLevel(uint _level, uint _pirateId) {\n    require(pirates[_pirateId].level >= _level);\n    _;\n  }\n\n  /*function withdraw() external onlyOwner {\n    owner.transfer(address(this).balance);\n  }*/\n\n  function setLevelUpFee(uint _fee) external onlyOwner {\n    levelUpFee = _fee;\n  }\n\n  function levelUp(uint _pirateId) external payable {\n    require(msg.value == levelUpFee);\n    pirates[_pirateId].level++;\n  }\n\n  function changeName(uint _pirateId, string calldata _newName) external aboveLevel(2, _pirateId) onlyOwnerOf(_pirateId) {\n    pirates[_pirateId].name = _newName;\n  }\n\n  function changeDna(uint _pirateId, uint _newDna) external aboveLevel(20, _pirateId) onlyOwnerOf(_pirateId) {\n    pirates[_pirateId].dna = _newDna;\n  }\n\n//delete view\n  function getPiratesByOwner(address _owner) external view returns(uint[] memory) {\n    uint[] memory result = new uint[](ownerPirateCount[_owner]);\n    uint counter = 0;\n    for (uint i = 0; i < pirates.length; i++) {\n      if (pirateToOwner[i] == _owner) {\n        result[counter] = i;\n        counter++;\n      }\n    }\n    return result;\n  }\n\n\n}\n\n",
  "sourcePath": "/home/freeman/Desktop/testto/contracts/piratehelper.sol",
  "compiler": {
    "name": "solc",
    "version": "0.5.17+commit.d19bba13.Emscripten.clang"
  },
  "schemaVersion": "3.3.4",
  "updatedAt": "2021-03-07T19:55:37.833Z",
  "networkType": "ethereum",
  "devdoc": {
    "methods": {
      "transferOwnership(address)": {
        "details": "Allows the current owner to transfer control of the contract to a newOwner.",
        "params": {
          "newOwner": "The address to transfer ownership to."
        }
      }
    }
  },
  "userdoc": {
    "methods": {}
  }
}