{
  "contractName": "PirateFeeding",
  "abi": [
    {
      "anonymous": false,
      "inputs": [
        {
          "indexed": false,
          "internalType": "uint256",
          "name": "pirateId",
          "type": "uint256"
        },
        {
          "indexed": false,
          "internalType": "string",
          "name": "name",
          "type": "string"
        },
        {
          "indexed": false,
          "internalType": "uint256",
          "name": "dna",
          "type": "uint256"
        }
      ],
      "name": "NewPirate",
      "type": "event"
    },
    {
      "anonymous": false,
      "inputs": [
        {
          "indexed": true,
          "internalType": "address",
          "name": "previousOwner",
          "type": "address"
        },
        {
          "indexed": true,
          "internalType": "address",
          "name": "newOwner",
          "type": "address"
        }
      ],
      "name": "OwnershipTransferred",
      "type": "event"
    },
    {
      "constant": false,
      "inputs": [
        {
          "internalType": "string",
          "name": "_name",
          "type": "string"
        }
      ],
      "name": "createRandomPirate",
      "outputs": [],
      "payable": false,
      "stateMutability": "nonpayable",
      "type": "function"
    },
    {
      "constant": true,
      "inputs": [
        {
          "internalType": "uint256",
          "name": "index",
          "type": "uint256"
        }
      ],
      "name": "getPirate",
      "outputs": [
        {
          "internalType": "string",
          "name": "",
          "type": "string"
        },
        {
          "internalType": "uint32",
          "name": "",
          "type": "uint32"
        },
        {
          "internalType": "uint16",
          "name": "",
          "type": "uint16"
        },
        {
          "internalType": "uint16",
          "name": "",
          "type": "uint16"
        }
      ],
      "payable": false,
      "stateMutability": "view",
      "type": "function"
    },
    {
      "constant": true,
      "inputs": [],
      "name": "getPiratesLenght",
      "outputs": [
        {
          "internalType": "uint256",
          "name": "",
          "type": "uint256"
        }
      ],
      "payable": false,
      "stateMutability": "view",
      "type": "function"
    },
    {
      "constant": true,
      "inputs": [],
      "name": "owner",
      "outputs": [
        {
          "internalType": "address",
          "name": "",
          "type": "address"
        }
      ],
      "payable": false,
      "stateMutability": "view",
      "type": "function"
    },
    {
      "constant": true,
      "inputs": [
        {
          "internalType": "uint256",
          "name": "",
          "type": "uint256"
        }
      ],
      "name": "pirateToOwner",
      "outputs": [
        {
          "internalType": "address",
          "name": "",
          "type": "address"
        }
      ],
      "payable": false,
      "stateMutability": "view",
      "type": "function"
    },
    {
      "constant": true,
      "inputs": [
        {
          "internalType": "uint256",
          "name": "",
          "type": "uint256"
        }
      ],
      "name": "pirates",
      "outputs": [
        {
          "internalType": "string",
          "name": "name",
          "type": "string"
        },
        {
          "internalType": "uint256",
          "name": "dna",
          "type": "uint256"
        },
        {
          "internalType": "uint32",
          "name": "level",
          "type": "uint32"
        },
        {
          "internalType": "uint32",
          "name": "readyTime",
          "type": "uint32"
        },
        {
          "internalType": "uint16",
          "name": "winCount",
          "type": "uint16"
        },
        {
          "internalType": "uint16",
          "name": "lossCount",
          "type": "uint16"
        }
      ],
      "payable": false,
      "stateMutability": "view",
      "type": "function"
    },
    {
      "constant": false,
      "inputs": [
        {
          "internalType": "address",
          "name": "newOwner",
          "type": "address"
        }
      ],
      "name": "transferOwnership",
      "outputs": [],
      "payable": false,
      "stateMutability": "nonpayable",
      "type": "function"
    },
    {
      "constant": false,
      "inputs": [
        {
          "internalType": "address",
          "name": "_address",
          "type": "address"
        }
      ],
      "name": "setPetContractAddress",
      "outputs": [],
      "payable": false,
      "stateMutability": "nonpayable",
      "type": "function"
    }
  ],
  "bytecode": "0x60806040526010600155600154600a0a60025562015180600355336000806101000a81548173ffffffffffffffffffffffffffffffffffffffff021916908373ffffffffffffffffffffffffffffffffffffffff160217905550610d57806100686000396000f3fe608060405234801561001057600080fd5b50600436106100885760003560e01c8063bf14e9561161005b578063bf14e95614610211578063d8e29daa14610303578063db7e28a0146103be578063f2fde38b1461042c57610088565b806336c80cb91461008d5780634921ac5c146101655780638d089b4e146101835780638da5cb5b146101c7575b600080fd5b6100b9600480360360208110156100a357600080fd5b8101908080359060200190929190505050610470565b60405180806020018563ffffffff1663ffffffff1681526020018461ffff1661ffff1681526020018361ffff1661ffff168152602001828103825286818151815260200191508051906020019080838360005b8381101561012757808201518184015260208101905061010c565b50505050905090810190601f1680156101545780820380516001836020036101000a031916815260200191505b509550505050505060405180910390f35b61016d6105c9565b6040518082815260200191505060405180910390f35b6101c56004803603602081101561019957600080fd5b81019080803573ffffffffffffffffffffffffffffffffffffffff1690602001909291905050506105d6565b005b6101cf610673565b604051808273ffffffffffffffffffffffffffffffffffffffff1673ffffffffffffffffffffffffffffffffffffffff16815260200191505060405180910390f35b61023d6004803603602081101561022757600080fd5b8101908080359060200190929190505050610698565b60405180806020018781526020018663ffffffff1663ffffffff1681526020018563ffffffff1663ffffffff1681526020018461ffff1661ffff1681526020018361ffff1661ffff168152602001828103825288818151815260200191508051906020019080838360005b838110156102c35780820151818401526020810190506102a8565b50505050905090810190601f1680156102f05780820380516001836020036101000a031916815260200191505b5097505050505050505060405180910390f35b6103bc6004803603602081101561031957600080fd5b810190808035906020019064010000000081111561033657600080fd5b82018360208201111561034857600080fd5b8035906020019184600183028401116401000000008311171561036a57600080fd5b91908080601f016020809104026020016040519081016040528093929190818152602001838380828437600081840152601f19601f8201169050808301925050505050505091929192905050506107b5565b005b6103ea600480360360208110156103d457600080fd5b810190808035906020019092919050505061082b565b604051808273ffffffffffffffffffffffffffffffffffffffff1673ffffffffffffffffffffffffffffffffffffffff16815260200191505060405180910390f35b61046e6004803603602081101561044257600080fd5b81019080803573ffffffffffffffffffffffffffffffffffffffff16906020019092919050505061085e565b005b606060008060006004858154811061048457fe5b9060005260206000209060030201600001600486815481106104a257fe5b906000526020600020906003020160020160009054906101000a900463ffffffff16600487815481106104d157fe5b906000526020600020906003020160020160089054906101000a900461ffff16600488815481106104fe57fe5b9060005260206000209060030201600201600a9054906101000a900461ffff16838054600181600116156101000203166002900480601f0160208091040260200160405190810160405280929190818152602001828054600181600116156101000203166002900480156105b35780601f10610588576101008083540402835291602001916105b3565b820191906000526020600020905b81548152906001019060200180831161059657829003601f168201915b5050505050935093509350935093509193509193565b6000600480549050905090565b6000809054906101000a900473ffffffffffffffffffffffffffffffffffffffff1673ffffffffffffffffffffffffffffffffffffffff163373ffffffffffffffffffffffffffffffffffffffff161461062f57600080fd5b80600760006101000a81548173ffffffffffffffffffffffffffffffffffffffff021916908373ffffffffffffffffffffffffffffffffffffffff16021790555050565b6000809054906101000a900473ffffffffffffffffffffffffffffffffffffffff1681565b600481815481106106a557fe5b9060005260206000209060030201600091509050806000018054600181600116156101000203166002900480601f0160208091040260200160405190810160405280929190818152602001828054600181600116156101000203166002900480156107515780601f1061072657610100808354040283529160200191610751565b820191906000526020600020905b81548152906001019060200180831161073457829003601f168201915b5050505050908060010154908060020160009054906101000a900463ffffffff16908060020160049054906101000a900463ffffffff16908060020160089054906101000a900461ffff169080600201600a9054906101000a900461ffff16905086565b6000600660003373ffffffffffffffffffffffffffffffffffffffff1673ffffffffffffffffffffffffffffffffffffffff168152602001908152602001600020541461080157600080fd5b600061080c826109af565b90506064818161081857fe5b068103905061082782826109f2565b5050565b60056020528060005260406000206000915054906101000a900473ffffffffffffffffffffffffffffffffffffffff1681565b6000809054906101000a900473ffffffffffffffffffffffffffffffffffffffff1673ffffffffffffffffffffffffffffffffffffffff163373ffffffffffffffffffffffffffffffffffffffff16146108b757600080fd5b600073ffffffffffffffffffffffffffffffffffffffff168173ffffffffffffffffffffffffffffffffffffffff1614156108f157600080fd5b8073ffffffffffffffffffffffffffffffffffffffff166000809054906101000a900473ffffffffffffffffffffffffffffffffffffffff1673ffffffffffffffffffffffffffffffffffffffff167f8be0079c531659141344cd1fd0a4f28419497f9722a3daafe3b4186f6b6457e060405160405180910390a3806000806101000a81548173ffffffffffffffffffffffffffffffffffffffff021916908373ffffffffffffffffffffffffffffffffffffffff16021790555050565b60008042604051602001808281526020019150506040516020818303038152906040528051906020012060001c905060025481816109e957fe5b06915050919050565b6000600160046040518060c00160405280868152602001858152602001600163ffffffff168152602001600354420163ffffffff168152602001600061ffff168152602001600061ffff16815250908060018154018082558091505090600182039060005260206000209060030201600090919290919091506000820151816000019080519060200190610a87929190610c7d565b506020820151816001015560408201518160020160006101000a81548163ffffffff021916908363ffffffff16021790555060608201518160020160046101000a81548163ffffffff021916908363ffffffff16021790555060808201518160020160086101000a81548161ffff021916908361ffff16021790555060a082015181600201600a6101000a81548161ffff021916908361ffff1602179055505050039050336005600083815260200190815260200160002060006101000a81548173ffffffffffffffffffffffffffffffffffffffff021916908373ffffffffffffffffffffffffffffffffffffffff160217905550600660003373ffffffffffffffffffffffffffffffffffffffff1673ffffffffffffffffffffffffffffffffffffffff168152602001908152602001600020600081548092919060010191905055507f6b0b682eb60f10e65ca2065dceecd9e5d24a08f912cdcb6bf59fb4ded1b3a1048184846040518084815260200180602001838152602001828103825284818151815260200191508051906020019080838360005b83811015610c3c578082015181840152602081019050610c21565b50505050905090810190601f168015610c695780820380516001836020036101000a031916815260200191505b5094505050505060405180910390a1505050565b828054600181600116156101000203166002900490600052602060002090601f016020900481019282601f10610cbe57805160ff1916838001178555610cec565b82800160010185558215610cec579182015b82811115610ceb578251825591602001919060010190610cd0565b5b509050610cf99190610cfd565b5090565b610d1f91905b80821115610d1b576000816000905550600101610d03565b5090565b9056fea265627a7a7231582059643c5a3d0cea2501e5025a29ef576d0e1435fcb02fc5d98a93a71cf08930ad64736f6c63430005110032",
  "source": "pragma solidity >=0.4.20;\n\nimport \"./piratefactory.sol\";\n\ncontract PetInterface {\n  //delete view\n  function kidnap(uint256 _id) external view returns (\n    bool isReady,\n    uint256 cooldownIndex,\n    uint256 nextActionAt,\n    uint256 birthTime,\n    uint256 generation,\n    uint256 genes\n  );\n}\n\ncontract PirateFeeding is PirateFactory {\n\n  PetInterface petContract;\n\n  modifier onlyOwnerOf(uint _pirateId) {\n    require(msg.sender == pirateToOwner[_pirateId]);\n    _;\n  }\n\n  function setPetContractAddress(address _address) external onlyOwner {\n    petContract = PetInterface(_address);\n  }\n\n  function _triggerCooldown(Pirate storage _pirate) internal {\n    _pirate.readyTime = uint32(now + cooldownTime);\n  }\n\n  function _isReady(Pirate storage _pirate) internal view returns (bool) {\n      return (_pirate.readyTime <= now);\n  }\n//it would be great to set a function to kidnap pirate's pets---kidnap kitties would be a great stealPirate\n//obviuosly without any real effect so it could be designed another fungible tokens to be pirates pets\n//that could be kidnaped and ask a ransom for them\n//it could then  been designed a token for the game to steal from pirates and to pay ransoms\n  function stealPirate(uint _pirateId, uint _pirateIdEnemy, string memory typeAttack) internal onlyOwnerOf(_pirateId) {\n    Pirate storage myPirate = pirates[_pirateId];\n    require(_isReady(myPirate));\n    \n    \n    /*if (keccak256(_species) == keccak256(\"attack\")) {\n      \n    }*/\n    _triggerCooldown(myPirate);\n  }\n\n  function _kiddnapPet(uint _pirateId, uint _kittyId) internal {\n    uint petDna;\n    (,,,,,petDna) = petContract.kidnap(_kittyId);\n  }\n}\n\n",
  "sourcePath": "/home/freeman/Desktop/testto/contracts/piratefeeding.sol",
  "compiler": {
    "name": "solc",
    "version": "0.5.17+commit.d19bba13.Emscripten.clang"
  },
  "schemaVersion": "3.3.4",
  "updatedAt": "2021-03-07T19:55:37.830Z",
  "networkType": "ethereum",
  "devdoc": {
    "methods": {
      "transferOwnership(address)": {
        "details": "Allows the current owner to transfer control of the contract to a newOwner.",
        "params": {
          "newOwner": "The address to transfer ownership to."
        }
      }
    }
  },
  "userdoc": {
    "methods": {}
  }
}