{
  "contractName": "PirateFactory",
  "abi": [
    {
      "anonymous": false,
      "inputs": [
        {
          "indexed": false,
          "internalType": "uint256",
          "name": "pirateId",
          "type": "uint256"
        },
        {
          "indexed": false,
          "internalType": "string",
          "name": "name",
          "type": "string"
        },
        {
          "indexed": false,
          "internalType": "uint256",
          "name": "dna",
          "type": "uint256"
        }
      ],
      "name": "NewPirate",
      "type": "event"
    },
    {
      "anonymous": false,
      "inputs": [
        {
          "indexed": true,
          "internalType": "address",
          "name": "previousOwner",
          "type": "address"
        },
        {
          "indexed": true,
          "internalType": "address",
          "name": "newOwner",
          "type": "address"
        }
      ],
      "name": "OwnershipTransferred",
      "type": "event"
    },
    {
      "constant": true,
      "inputs": [],
      "name": "owner",
      "outputs": [
        {
          "internalType": "address",
          "name": "",
          "type": "address"
        }
      ],
      "payable": false,
      "stateMutability": "view",
      "type": "function"
    },
    {
      "constant": true,
      "inputs": [
        {
          "internalType": "uint256",
          "name": "",
          "type": "uint256"
        }
      ],
      "name": "pirateToOwner",
      "outputs": [
        {
          "internalType": "address",
          "name": "",
          "type": "address"
        }
      ],
      "payable": false,
      "stateMutability": "view",
      "type": "function"
    },
    {
      "constant": true,
      "inputs": [
        {
          "internalType": "uint256",
          "name": "",
          "type": "uint256"
        }
      ],
      "name": "pirates",
      "outputs": [
        {
          "internalType": "string",
          "name": "name",
          "type": "string"
        },
        {
          "internalType": "uint256",
          "name": "dna",
          "type": "uint256"
        },
        {
          "internalType": "uint32",
          "name": "level",
          "type": "uint32"
        },
        {
          "internalType": "uint32",
          "name": "readyTime",
          "type": "uint32"
        },
        {
          "internalType": "uint16",
          "name": "winCount",
          "type": "uint16"
        },
        {
          "internalType": "uint16",
          "name": "lossCount",
          "type": "uint16"
        }
      ],
      "payable": false,
      "stateMutability": "view",
      "type": "function"
    },
    {
      "constant": false,
      "inputs": [
        {
          "internalType": "address",
          "name": "newOwner",
          "type": "address"
        }
      ],
      "name": "transferOwnership",
      "outputs": [],
      "payable": false,
      "stateMutability": "nonpayable",
      "type": "function"
    },
    {
      "constant": false,
      "inputs": [
        {
          "internalType": "string",
          "name": "_name",
          "type": "string"
        }
      ],
      "name": "createRandomPirate",
      "outputs": [],
      "payable": false,
      "stateMutability": "nonpayable",
      "type": "function"
    },
    {
      "constant": true,
      "inputs": [],
      "name": "getPiratesLenght",
      "outputs": [
        {
          "internalType": "uint256",
          "name": "",
          "type": "uint256"
        }
      ],
      "payable": false,
      "stateMutability": "view",
      "type": "function"
    },
    {
      "constant": true,
      "inputs": [
        {
          "internalType": "uint256",
          "name": "index",
          "type": "uint256"
        }
      ],
      "name": "getPirate",
      "outputs": [
        {
          "internalType": "string",
          "name": "",
          "type": "string"
        },
        {
          "internalType": "uint32",
          "name": "",
          "type": "uint32"
        },
        {
          "internalType": "uint16",
          "name": "",
          "type": "uint16"
        },
        {
          "internalType": "uint16",
          "name": "",
          "type": "uint16"
        }
      ],
      "payable": false,
      "stateMutability": "view",
      "type": "function"
    }
  ],
  "bytecode": "0x60806040526010600155600154600a0a60025562015180600355336000806101000a81548173ffffffffffffffffffffffffffffffffffffffff021916908373ffffffffffffffffffffffffffffffffffffffff160217905550610df3806100686000396000f3fe608060405234801561001057600080fd5b506004361061007d5760003560e01c8063bf14e9561161005b578063bf14e956146100f1578063d8e29daa14610126578063db7e28a014610142578063f2fde38b146101725761007d565b806336c80cb9146100825780634921ac5c146100b55780638da5cb5b146100d3575b600080fd5b61009c60048036036100979190810190610a1a565b61018e565b6040516100ac9493929190610b3e565b60405180910390f35b6100bd6102e7565b6040516100ca9190610bf2565b60405180910390f35b6100db6102f4565b6040516100e89190610b23565b60405180910390f35b61010b60048036036101069190810190610a1a565b610319565b60405161011d96959493929190610b8a565b60405180910390f35b610140600480360361013b91908101906109d9565b610436565b005b61015c60048036036101579190810190610a1a565b6104ac565b6040516101699190610b23565b60405180910390f35b61018c600480360361018791908101906109b0565b6104df565b005b60606000806000600485815481106101a257fe5b9060005260206000209060030201600001600486815481106101c057fe5b906000526020600020906003020160020160009054906101000a900463ffffffff16600487815481106101ef57fe5b906000526020600020906003020160020160089054906101000a900461ffff166004888154811061021c57fe5b9060005260206000209060030201600201600a9054906101000a900461ffff16838054600181600116156101000203166002900480601f0160208091040260200160405190810160405280929190818152602001828054600181600116156101000203166002900480156102d15780601f106102a6576101008083540402835291602001916102d1565b820191906000526020600020905b8154815290600101906020018083116102b457829003601f168201915b5050505050935093509350935093509193509193565b6000600480549050905090565b6000809054906101000a900473ffffffffffffffffffffffffffffffffffffffff1681565b6004818154811061032657fe5b9060005260206000209060030201600091509050806000018054600181600116156101000203166002900480601f0160208091040260200160405190810160405280929190818152602001828054600181600116156101000203166002900480156103d25780601f106103a7576101008083540402835291602001916103d2565b820191906000526020600020905b8154815290600101906020018083116103b557829003601f168201915b5050505050908060010154908060020160009054906101000a900463ffffffff16908060020160049054906101000a900463ffffffff16908060020160089054906101000a900461ffff169080600201600a9054906101000a900461ffff16905086565b6000600660003373ffffffffffffffffffffffffffffffffffffffff1673ffffffffffffffffffffffffffffffffffffffff168152602001908152602001600020541461048257600080fd5b600061048d82610630565b90506064818161049957fe5b06810390506104a88282610673565b5050565b60056020528060005260406000206000915054906101000a900473ffffffffffffffffffffffffffffffffffffffff1681565b6000809054906101000a900473ffffffffffffffffffffffffffffffffffffffff1673ffffffffffffffffffffffffffffffffffffffff163373ffffffffffffffffffffffffffffffffffffffff161461053857600080fd5b600073ffffffffffffffffffffffffffffffffffffffff168173ffffffffffffffffffffffffffffffffffffffff16141561057257600080fd5b8073ffffffffffffffffffffffffffffffffffffffff166000809054906101000a900473ffffffffffffffffffffffffffffffffffffffff1673ffffffffffffffffffffffffffffffffffffffff167f8be0079c531659141344cd1fd0a4f28419497f9722a3daafe3b4186f6b6457e060405160405180910390a3806000806101000a81548173ffffffffffffffffffffffffffffffffffffffff021916908373ffffffffffffffffffffffffffffffffffffffff16021790555050565b600080426040516020016106449190610b08565b6040516020818303038152906040528051906020012060001c9050600254818161066a57fe5b06915050919050565b6000600160046040518060c00160405280868152602001858152602001600163ffffffff168152602001600354420163ffffffff168152602001600061ffff168152602001600061ffff1681525090806001815401808255809150509060018203906000526020600020906003020160009091929091909150600082015181600001908051906020019061070892919061088d565b506020820151816001015560408201518160020160006101000a81548163ffffffff021916908363ffffffff16021790555060608201518160020160046101000a81548163ffffffff021916908363ffffffff16021790555060808201518160020160086101000a81548161ffff021916908361ffff16021790555060a082015181600201600a6101000a81548161ffff021916908361ffff1602179055505050039050336005600083815260200190815260200160002060006101000a81548173ffffffffffffffffffffffffffffffffffffffff021916908373ffffffffffffffffffffffffffffffffffffffff160217905550600660003373ffffffffffffffffffffffffffffffffffffffff1673ffffffffffffffffffffffffffffffffffffffff168152602001908152602001600020600081548092919060010191905055507f6b0b682eb60f10e65ca2065dceecd9e5d24a08f912cdcb6bf59fb4ded1b3a10481848460405161088093929190610c0d565b60405180910390a1505050565b828054600181600116156101000203166002900490600052602060002090601f016020900481019282601f106108ce57805160ff19168380011785556108fc565b828001600101855582156108fc579182015b828111156108fb5782518255916020019190600101906108e0565b5b509050610909919061090d565b5090565b61092f91905b8082111561092b576000816000905550600101610913565b5090565b90565b60008135905061094181610d82565b92915050565b600082601f83011261095857600080fd5b813561096b61096682610c78565b610c4b565b9150808252602083016020830185838301111561098757600080fd5b610992838284610d25565b50505092915050565b6000813590506109aa81610d99565b92915050565b6000602082840312156109c257600080fd5b60006109d084828501610932565b91505092915050565b6000602082840312156109eb57600080fd5b600082013567ffffffffffffffff811115610a0557600080fd5b610a1184828501610947565b91505092915050565b600060208284031215610a2c57600080fd5b6000610a3a8482850161099b565b91505092915050565b610a4c81610ccb565b82525050565b6000610a5d82610caf565b610a678185610cba565b9350610a77818560208601610d34565b610a8081610d71565b840191505092915050565b6000610a9682610ca4565b610aa08185610cba565b9350610ab0818560208601610d34565b610ab981610d71565b840191505092915050565b610acd81610cdd565b82525050565b610adc81610d0b565b82525050565b610af3610aee82610d0b565b610d67565b82525050565b610b0281610d15565b82525050565b6000610b148284610ae2565b60208201915081905092915050565b6000602082019050610b386000830184610a43565b92915050565b60006080820190508181036000830152610b588187610a52565b9050610b676020830186610af9565b610b746040830185610ac4565b610b816060830184610ac4565b95945050505050565b600060c0820190508181036000830152610ba48189610a8b565b9050610bb36020830188610ad3565b610bc06040830187610af9565b610bcd6060830186610af9565b610bda6080830185610ac4565b610be760a0830184610ac4565b979650505050505050565b6000602082019050610c076000830184610ad3565b92915050565b6000606082019050610c226000830186610ad3565b8181036020830152610c348185610a52565b9050610c436040830184610ad3565b949350505050565b6000604051905081810181811067ffffffffffffffff82111715610c6e57600080fd5b8060405250919050565b600067ffffffffffffffff821115610c8f57600080fd5b601f19601f8301169050602081019050919050565b600081519050919050565b600081519050919050565b600082825260208201905092915050565b6000610cd682610ceb565b9050919050565b600061ffff82169050919050565b600073ffffffffffffffffffffffffffffffffffffffff82169050919050565b6000819050919050565b600063ffffffff82169050919050565b82818337600083830152505050565b60005b83811015610d52578082015181840152602081019050610d37565b83811115610d61576000848401525b50505050565b6000819050919050565b6000601f19601f8301169050919050565b610d8b81610ccb565b8114610d9657600080fd5b50565b610da281610d0b565b8114610dad57600080fd5b5056fea365627a7a72315820f989a617519e5b92a499f7515ea683c504a1b8c42f6d2796faf721345ab49af86c6578706572696d656e74616cf564736f6c63430005110040",
  "source": "pragma experimental ABIEncoderV2;\npragma solidity >=0.4.20;\n\nimport \"./ownable.sol\";\nimport \"./safemath.sol\";\n\ncontract PirateFactory is Ownable {\n\n  using SafeMath for uint256;\n\n  event NewPirate(uint pirateId, string name, uint dna);\n\n  uint dnaDigits = 16;\n  uint dnaModulus = 10 ** dnaDigits;\n  uint cooldownTime = 1 days;\n\n  struct Pirate {\n    string name;\n    uint dna;\n    uint32 level;\n    uint32 readyTime;\n    uint16 winCount;\n    uint16 lossCount;\n  }\n\n  Pirate[] public pirates;\n\n  mapping (uint => address) public pirateToOwner;\n  mapping (address => uint) ownerPirateCount;\n\n  function _createPirate(string memory _name, uint _dna) internal {\n    uint id = pirates.push(Pirate(_name, _dna, 1, uint32(now + cooldownTime), 0, 0)) - 1;\n    pirateToOwner[id] = msg.sender;\n    ownerPirateCount[msg.sender]++;\n    emit NewPirate(id, _name, _dna);\n  }\n\n//delete view\n  function _generateRandomDna(string memory _str) private view returns (uint) {\n    uint rand = uint(keccak256(abi.encodePacked(block.timestamp)));\n    return rand % dnaModulus;\n  }\n\n  function createRandomPirate(string memory _name) public {\n    require(ownerPirateCount[msg.sender] == 0);\n    uint randDna = _generateRandomDna(_name);\n    randDna = randDna - randDna % 100;\n    _createPirate(_name, randDna);\n  }\n\n  function getPiratesLenght() public view returns (uint) {\n     return pirates.length;\n }\n\n function getPirate(uint index) public view returns (string memory, uint32, uint16, uint16) {\n   return (pirates[index].name, pirates[index].level, pirates[index].winCount, pirates[index].lossCount);\n }\n\n}\n\n",
  "sourcePath": "/home/freeman/Desktop/testto/contracts/piratefactory.sol",
  "compiler": {
    "name": "solc",
    "version": "0.5.17+commit.d19bba13.Emscripten.clang"
  },
  "schemaVersion": "3.3.4",
  "updatedAt": "2021-03-07T19:55:37.826Z",
  "networkType": "ethereum",
  "devdoc": {
    "methods": {
      "transferOwnership(address)": {
        "details": "Allows the current owner to transfer control of the contract to a newOwner.",
        "params": {
          "newOwner": "The address to transfer ownership to."
        }
      }
    }
  },
  "userdoc": {
    "methods": {}
  }
}