{
  "contractName": "PirateAttack",
  "abi": [
    {
      "anonymous": false,
      "inputs": [
        {
          "indexed": false,
          "internalType": "uint256",
          "name": "pirateId",
          "type": "uint256"
        },
        {
          "indexed": false,
          "internalType": "string",
          "name": "name",
          "type": "string"
        },
        {
          "indexed": false,
          "internalType": "uint256",
          "name": "dna",
          "type": "uint256"
        }
      ],
      "name": "NewPirate",
      "type": "event"
    },
    {
      "anonymous": false,
      "inputs": [
        {
          "indexed": true,
          "internalType": "address",
          "name": "previousOwner",
          "type": "address"
        },
        {
          "indexed": true,
          "internalType": "address",
          "name": "newOwner",
          "type": "address"
        }
      ],
      "name": "OwnershipTransferred",
      "type": "event"
    },
    {
      "anonymous": false,
      "inputs": [
        {
          "indexed": true,
          "internalType": "uint256",
          "name": "_pirateId",
          "type": "uint256"
        },
        {
          "indexed": false,
          "internalType": "uint256",
          "name": "result",
          "type": "uint256"
        }
      ],
      "name": "attackResult",
      "type": "event"
    },
    {
      "constant": false,
      "inputs": [
        {
          "internalType": "uint256",
          "name": "_pirateId",
          "type": "uint256"
        },
        {
          "internalType": "uint256",
          "name": "_newDna",
          "type": "uint256"
        }
      ],
      "name": "changeDna",
      "outputs": [],
      "payable": false,
      "stateMutability": "nonpayable",
      "type": "function"
    },
    {
      "constant": false,
      "inputs": [
        {
          "internalType": "uint256",
          "name": "_pirateId",
          "type": "uint256"
        },
        {
          "internalType": "string",
          "name": "_newName",
          "type": "string"
        }
      ],
      "name": "changeName",
      "outputs": [],
      "payable": false,
      "stateMutability": "nonpayable",
      "type": "function"
    },
    {
      "constant": false,
      "inputs": [
        {
          "internalType": "string",
          "name": "_name",
          "type": "string"
        }
      ],
      "name": "createRandomPirate",
      "outputs": [],
      "payable": false,
      "stateMutability": "nonpayable",
      "type": "function"
    },
    {
      "constant": true,
      "inputs": [
        {
          "internalType": "uint256",
          "name": "index",
          "type": "uint256"
        }
      ],
      "name": "getPirate",
      "outputs": [
        {
          "internalType": "string",
          "name": "",
          "type": "string"
        },
        {
          "internalType": "uint32",
          "name": "",
          "type": "uint32"
        },
        {
          "internalType": "uint16",
          "name": "",
          "type": "uint16"
        },
        {
          "internalType": "uint16",
          "name": "",
          "type": "uint16"
        }
      ],
      "payable": false,
      "stateMutability": "view",
      "type": "function"
    },
    {
      "constant": true,
      "inputs": [
        {
          "internalType": "address",
          "name": "_owner",
          "type": "address"
        }
      ],
      "name": "getPiratesByOwner",
      "outputs": [
        {
          "internalType": "uint256[]",
          "name": "",
          "type": "uint256[]"
        }
      ],
      "payable": false,
      "stateMutability": "view",
      "type": "function"
    },
    {
      "constant": true,
      "inputs": [],
      "name": "getPiratesLenght",
      "outputs": [
        {
          "internalType": "uint256",
          "name": "",
          "type": "uint256"
        }
      ],
      "payable": false,
      "stateMutability": "view",
      "type": "function"
    },
    {
      "constant": false,
      "inputs": [
        {
          "internalType": "uint256",
          "name": "_pirateId",
          "type": "uint256"
        }
      ],
      "name": "levelUp",
      "outputs": [],
      "payable": true,
      "stateMutability": "payable",
      "type": "function"
    },
    {
      "constant": true,
      "inputs": [],
      "name": "owner",
      "outputs": [
        {
          "internalType": "address",
          "name": "",
          "type": "address"
        }
      ],
      "payable": false,
      "stateMutability": "view",
      "type": "function"
    },
    {
      "constant": true,
      "inputs": [
        {
          "internalType": "uint256",
          "name": "",
          "type": "uint256"
        }
      ],
      "name": "pirateToOwner",
      "outputs": [
        {
          "internalType": "address",
          "name": "",
          "type": "address"
        }
      ],
      "payable": false,
      "stateMutability": "view",
      "type": "function"
    },
    {
      "constant": true,
      "inputs": [
        {
          "internalType": "uint256",
          "name": "",
          "type": "uint256"
        }
      ],
      "name": "pirates",
      "outputs": [
        {
          "internalType": "string",
          "name": "name",
          "type": "string"
        },
        {
          "internalType": "uint256",
          "name": "dna",
          "type": "uint256"
        },
        {
          "internalType": "uint32",
          "name": "level",
          "type": "uint32"
        },
        {
          "internalType": "uint32",
          "name": "readyTime",
          "type": "uint32"
        },
        {
          "internalType": "uint16",
          "name": "winCount",
          "type": "uint16"
        },
        {
          "internalType": "uint16",
          "name": "lossCount",
          "type": "uint16"
        }
      ],
      "payable": false,
      "stateMutability": "view",
      "type": "function"
    },
    {
      "constant": false,
      "inputs": [
        {
          "internalType": "uint256",
          "name": "_fee",
          "type": "uint256"
        }
      ],
      "name": "setLevelUpFee",
      "outputs": [],
      "payable": false,
      "stateMutability": "nonpayable",
      "type": "function"
    },
    {
      "constant": false,
      "inputs": [
        {
          "internalType": "address",
          "name": "_address",
          "type": "address"
        }
      ],
      "name": "setPetContractAddress",
      "outputs": [],
      "payable": false,
      "stateMutability": "nonpayable",
      "type": "function"
    },
    {
      "constant": false,
      "inputs": [
        {
          "internalType": "address",
          "name": "newOwner",
          "type": "address"
        }
      ],
      "name": "transferOwnership",
      "outputs": [],
      "payable": false,
      "stateMutability": "nonpayable",
      "type": "function"
    },
    {
      "constant": false,
      "inputs": [
        {
          "internalType": "uint256",
          "name": "_pirateId",
          "type": "uint256"
        },
        {
          "internalType": "uint256",
          "name": "_targetId",
          "type": "uint256"
        }
      ],
      "name": "attack",
      "outputs": [],
      "payable": false,
      "stateMutability": "nonpayable",
      "type": "function"
    }
  ],
  "bytecode": "0x60806040526010600155600154600a0a6002556201518060035566038d7ea4c6800060085560006009556046600a55336000806101000a81548173ffffffffffffffffffffffffffffffffffffffff021916908373ffffffffffffffffffffffffffffffffffffffff1602179055506117598061007d6000396000f3fe6080604052600436106100dd5760003560e01c8063bf14e9561161007f578063d8e29daa11610059578063d8e29daa1461057d578063db7e28a014610645578063e1fa7638146106c0578063f2fde38b14610705576100dd565b8063bf14e956146103b3578063c39cbef1146104b2578063ccf670f814610542576100dd565b80634921ac5c116100bb5780634921ac5c1461029b5780635faf2880146102c65780638d089b4e1461030b5780638da5cb5b1461035c576100dd565b80630ce90ec2146100e25780632e40c04b1461011057806336c80cb9146101b6575b600080fd5b61010e600480360360208110156100f857600080fd5b8101908080359060200190929190505050610756565b005b34801561011c57600080fd5b5061015f6004803603602081101561013357600080fd5b81019080803573ffffffffffffffffffffffffffffffffffffffff1690602001909291905050506107be565b6040518080602001828103825283818151815260200191508051906020019060200280838360005b838110156101a2578082015181840152602081019050610187565b505050509050019250505060405180910390f35b3480156101c257600080fd5b506101ef600480360360208110156101d957600080fd5b81019080803590602001909291905050506108eb565b60405180806020018563ffffffff1663ffffffff1681526020018461ffff1661ffff1681526020018361ffff1661ffff168152602001828103825286818151815260200191508051906020019080838360005b8381101561025d578082015181840152602081019050610242565b50505050905090810190601f16801561028a5780820380516001836020036101000a031916815260200191505b509550505050505060405180910390f35b3480156102a757600080fd5b506102b0610a44565b6040518082815260200191505060405180910390f35b3480156102d257600080fd5b50610309600480360360408110156102e957600080fd5b810190808035906020019092919080359060200190929190505050610a51565b005b34801561031757600080fd5b5061035a6004803603602081101561032e57600080fd5b81019080803573ffffffffffffffffffffffffffffffffffffffff169060200190929190505050610b2b565b005b34801561036857600080fd5b50610371610bc8565b604051808273ffffffffffffffffffffffffffffffffffffffff1673ffffffffffffffffffffffffffffffffffffffff16815260200191505060405180910390f35b3480156103bf57600080fd5b506103ec600480360360208110156103d657600080fd5b8101908080359060200190929190505050610bed565b60405180806020018781526020018663ffffffff1663ffffffff1681526020018563ffffffff1663ffffffff1681526020018461ffff1661ffff1681526020018361ffff1661ffff168152602001828103825288818151815260200191508051906020019080838360005b83811015610472578082015181840152602081019050610457565b50505050905090810190601f16801561049f5780820380516001836020036101000a031916815260200191505b5097505050505050505060405180910390f35b3480156104be57600080fd5b50610540600480360360408110156104d557600080fd5b8101908080359060200190929190803590602001906401000000008111156104fc57600080fd5b82018360208201111561050e57600080fd5b8035906020019184600183028401116401000000008311171561053057600080fd5b9091929391929390505050610d0a565b005b34801561054e57600080fd5b5061057b6004803603602081101561056557600080fd5b8101908080359060200190929190505050610df0565b005b34801561058957600080fd5b50610643600480360360208110156105a057600080fd5b81019080803590602001906401000000008111156105bd57600080fd5b8201836020820111156105cf57600080fd5b803590602001918460018302840111640100000000831117156105f157600080fd5b91908080601f016020809104026020016040519081016040528093929190818152602001838380828437600081840152601f19601f820116905080830192505050505050509192919290505050610e53565b005b34801561065157600080fd5b5061067e6004803603602081101561066857600080fd5b8101908080359060200190929190505050610ec9565b604051808273ffffffffffffffffffffffffffffffffffffffff1673ffffffffffffffffffffffffffffffffffffffff16815260200191505060405180910390f35b3480156106cc57600080fd5b50610703600480360360408110156106e357600080fd5b810190808035906020019092919080359060200190929190505050610efc565b005b34801561071157600080fd5b506107546004803603602081101561072857600080fd5b81019080803573ffffffffffffffffffffffffffffffffffffffff169060200190929190505050611168565b005b600854341461076457600080fd5b6004818154811061077157fe5b9060005260206000209060030201600201600081819054906101000a900463ffffffff168092919060010191906101000a81548163ffffffff021916908363ffffffff1602179055505050565b606080600660008473ffffffffffffffffffffffffffffffffffffffff1673ffffffffffffffffffffffffffffffffffffffff1681526020019081526020016000205460405190808252806020026020018201604052801561082f5781602001602082028038833980820191505090505b509050600080905060008090505b6004805490508110156108e0578473ffffffffffffffffffffffffffffffffffffffff166005600083815260200190815260200160002060009054906101000a900473ffffffffffffffffffffffffffffffffffffffff1673ffffffffffffffffffffffffffffffffffffffff1614156108d357808383815181106108be57fe5b60200260200101818152505081806001019250505b808060010191505061083d565b508192505050919050565b60606000806000600485815481106108ff57fe5b90600052602060002090600302016000016004868154811061091d57fe5b906000526020600020906003020160020160009054906101000a900463ffffffff166004878154811061094c57fe5b906000526020600020906003020160020160089054906101000a900461ffff166004888154811061097957fe5b9060005260206000209060030201600201600a9054906101000a900461ffff16838054600181600116156101000203166002900480601f016020809104026020016040519081016040528092919081815260200182805460018160011615610100020316600290048015610a2e5780601f10610a0357610100808354040283529160200191610a2e565b820191906000526020600020905b815481529060010190602001808311610a1157829003601f168201915b5050505050935093509350935093509193509193565b6000600480549050905090565b6014828160048281548110610a6257fe5b906000526020600020906003020160020160009054906101000a900463ffffffff1663ffffffff161015610a9557600080fd5b836005600082815260200190815260200160002060009054906101000a900473ffffffffffffffffffffffffffffffffffffffff1673ffffffffffffffffffffffffffffffffffffffff163373ffffffffffffffffffffffffffffffffffffffff1614610b0157600080fd5b8360048681548110610b0f57fe5b9060005260206000209060030201600101819055505050505050565b6000809054906101000a900473ffffffffffffffffffffffffffffffffffffffff1673ffffffffffffffffffffffffffffffffffffffff163373ffffffffffffffffffffffffffffffffffffffff1614610b8457600080fd5b80600760006101000a81548173ffffffffffffffffffffffffffffffffffffffff021916908373ffffffffffffffffffffffffffffffffffffffff16021790555050565b6000809054906101000a900473ffffffffffffffffffffffffffffffffffffffff1681565b60048181548110610bfa57fe5b9060005260206000209060030201600091509050806000018054600181600116156101000203166002900480601f016020809104026020016040519081016040528092919081815260200182805460018160011615610100020316600290048015610ca65780601f10610c7b57610100808354040283529160200191610ca6565b820191906000526020600020905b815481529060010190602001808311610c8957829003601f168201915b5050505050908060010154908060020160009054906101000a900463ffffffff16908060020160049054906101000a900463ffffffff16908060020160089054906101000a900461ffff169080600201600a9054906101000a900461ffff16905086565b6002838160048281548110610d1b57fe5b906000526020600020906003020160020160009054906101000a900463ffffffff1663ffffffff161015610d4e57600080fd5b846005600082815260200190815260200160002060009054906101000a900473ffffffffffffffffffffffffffffffffffffffff1673ffffffffffffffffffffffffffffffffffffffff163373ffffffffffffffffffffffffffffffffffffffff1614610dba57600080fd5b848460048881548110610dc957fe5b90600052602060002090600302016000019190610de79291906115ff565b50505050505050565b6000809054906101000a900473ffffffffffffffffffffffffffffffffffffffff1673ffffffffffffffffffffffffffffffffffffffff163373ffffffffffffffffffffffffffffffffffffffff1614610e4957600080fd5b8060088190555050565b6000600660003373ffffffffffffffffffffffffffffffffffffffff1673ffffffffffffffffffffffffffffffffffffffff1681526020019081526020016000205414610e9f57600080fd5b6000610eaa826112b9565b905060648181610eb657fe5b0681039050610ec582826112fc565b5050565b60056020528060005260406000206000915054906101000a900473ffffffffffffffffffffffffffffffffffffffff1681565b816005600082815260200190815260200160002060009054906101000a900473ffffffffffffffffffffffffffffffffffffffff1673ffffffffffffffffffffffffffffffffffffffff163373ffffffffffffffffffffffffffffffffffffffff1614610f6857600080fd5b600060048481548110610f7757fe5b90600052602060002090600302019050600060048481548110610f9657fe5b906000526020600020906003020190506000610fb26064611587565b9050600a5481116110af5782600201600881819054906101000a900461ffff168092919060010191906101000a81548161ffff021916908361ffff1602179055505082600201600081819054906101000a900463ffffffff168092919060010191906101000a81548163ffffffff021916908363ffffffff1602179055505081600201600a81819054906101000a900461ffff168092919060010191906101000a81548161ffff021916908361ffff16021790555050611071836115d5565b857f9c970294b8e9ce03d35b4e6858f8a44de0fbdc27f4a3c6d2bbb799fd4a4c29aa60016040518082815260200191505060405180910390a2611160565b82600201600a81819054906101000a900461ffff168092919060010191906101000a81548161ffff021916908361ffff1602179055505081600201600881819054906101000a900461ffff168092919060010191906101000a81548161ffff021916908361ffff16021790555050611126836115d5565b857f9c970294b8e9ce03d35b4e6858f8a44de0fbdc27f4a3c6d2bbb799fd4a4c29aa60006040518082815260200191505060405180910390a25b505050505050565b6000809054906101000a900473ffffffffffffffffffffffffffffffffffffffff1673ffffffffffffffffffffffffffffffffffffffff163373ffffffffffffffffffffffffffffffffffffffff16146111c157600080fd5b600073ffffffffffffffffffffffffffffffffffffffff168173ffffffffffffffffffffffffffffffffffffffff1614156111fb57600080fd5b8073ffffffffffffffffffffffffffffffffffffffff166000809054906101000a900473ffffffffffffffffffffffffffffffffffffffff1673ffffffffffffffffffffffffffffffffffffffff167f8be0079c531659141344cd1fd0a4f28419497f9722a3daafe3b4186f6b6457e060405160405180910390a3806000806101000a81548173ffffffffffffffffffffffffffffffffffffffff021916908373ffffffffffffffffffffffffffffffffffffffff16021790555050565b60008042604051602001808281526020019150506040516020818303038152906040528051906020012060001c905060025481816112f357fe5b06915050919050565b6000600160046040518060c00160405280868152602001858152602001600163ffffffff168152602001600354420163ffffffff168152602001600061ffff168152602001600061ffff1681525090806001815401808255809150509060018203906000526020600020906003020160009091929091909150600082015181600001908051906020019061139192919061167f565b506020820151816001015560408201518160020160006101000a81548163ffffffff021916908363ffffffff16021790555060608201518160020160046101000a81548163ffffffff021916908363ffffffff16021790555060808201518160020160086101000a81548161ffff021916908361ffff16021790555060a082015181600201600a6101000a81548161ffff021916908361ffff1602179055505050039050336005600083815260200190815260200160002060006101000a81548173ffffffffffffffffffffffffffffffffffffffff021916908373ffffffffffffffffffffffffffffffffffffffff160217905550600660003373ffffffffffffffffffffffffffffffffffffffff1673ffffffffffffffffffffffffffffffffffffffff168152602001908152602001600020600081548092919060010191905055507f6b0b682eb60f10e65ca2065dceecd9e5d24a08f912cdcb6bf59fb4ded1b3a1048184846040518084815260200180602001838152602001828103825284818151815260200191508051906020019080838360005b8381101561154657808201518184015260208101905061152b565b50505050905090810190601f1680156115735780820380516001836020036101000a031916815260200191505b5094505050505060405180910390a1505050565b60006009600081548092919060010191905055508142604051602001808281526020019150506040516020818303038152906040528051906020012060001c816115cd57fe5b069050919050565b60035442018160020160046101000a81548163ffffffff021916908363ffffffff16021790555050565b828054600181600116156101000203166002900490600052602060002090601f016020900481019282601f1061164057803560ff191683800117855561166e565b8280016001018555821561166e579182015b8281111561166d578235825591602001919060010190611652565b5b50905061167b91906116ff565b5090565b828054600181600116156101000203166002900490600052602060002090601f016020900481019282601f106116c057805160ff19168380011785556116ee565b828001600101855582156116ee579182015b828111156116ed5782518255916020019190600101906116d2565b5b5090506116fb91906116ff565b5090565b61172191905b8082111561171d576000816000905550600101611705565b5090565b9056fea265627a7a7231582049d7bf344a9161ac579b1c65c03b183c2b16bf42d0efa94fe4ea509037c0e31f64736f6c63430005110032",
  "source": "pragma solidity >=0.4.20;\n\nimport \"./piratehelper.sol\";\n\n//contract PirateAttack is PirateHelper {\ncontract PirateAttack is PirateHelper {\n  uint randNonce = 0;\n  uint attackVictoryProbability = 70;\n\n  event attackResult(uint indexed _pirateId, uint result);\n  function randMod(uint _modulus) internal returns(uint) {\n    randNonce++;\n    return uint(keccak256(abi.encodePacked(block.timestamp))) % _modulus;\n  }\n\n  function attack(uint _pirateId, uint _targetId) external onlyOwnerOf(_pirateId) {\n    Pirate storage myPirate = pirates[_pirateId];\n    Pirate storage enemyPirate = pirates[_targetId];\n    uint rand = randMod(100);\n    if (rand <= attackVictoryProbability) {\n      myPirate.winCount++;\n      myPirate.level++;\n      enemyPirate.lossCount++;\n      _triggerCooldown(myPirate);\n      emit attackResult(_pirateId, 1);\n      //stealPirate(_pirateId, _targetId, \"win\");\n    } else {\n      myPirate.lossCount++;\n      enemyPirate.winCount++;\n      _triggerCooldown(myPirate);\n      emit attackResult(_pirateId, 0);\n      //if you lose when you attack you wont be stealed too much like when youre under atteack\n      //stealPirate(_targetId, _pirateId, \"lose\");\n    }\n\n  }\n}\n\n",
  "sourcePath": "/home/freeman/Desktop/testto/contracts/pirateattack.sol",
  "compiler": {
    "name": "solc",
    "version": "0.5.17+commit.d19bba13.Emscripten.clang"
  },
  "schemaVersion": "3.3.4",
  "updatedAt": "2021-03-07T19:55:37.823Z",
  "networkType": "ethereum",
  "devdoc": {
    "methods": {
      "transferOwnership(address)": {
        "details": "Allows the current owner to transfer control of the contract to a newOwner.",
        "params": {
          "newOwner": "The address to transfer ownership to."
        }
      }
    }
  },
  "userdoc": {
    "methods": {}
  }
}